:103800000C94341C0C94511C0C94511C0C94511CA1
:103810000C94511C0C94511C0C94511C0C94511C74
:103820000C94511C0C94511C0C94511C0C94511C64
:103830000C94511C0C94511C0C94511C0C94511C54
:103840000C94511C0C94511C0C94511C0C94511C44
:103850000C94511C0C94511C0C94511C0C94511C34
:103860000C94511C0C94511C11241FBECFEFD4E0BA
:10387000DEBFCDBF11E0A0E0B1E0EEE5FFE302C0A6
:1038800005900D92A230B107D9F712E0A2E0B1E0A5
:1038900001C01D92AD30B107E1F70E942C1D0C94C0
:1038A000AD1F0C94001C282F259525952595259551
:1038B000205D8F708A3074F0895A9091C00095FF16
:1038C000FCCF2093C6009091C00095FFFCCF809361
:1038D000C6000895805DF1CF9091C00095FFFCCFA8
:1038E0008093C6000895CF92DF92EF92FF922D98B9
:1038F000CC24DD2476018091C00087FD17C0089498
:10390000C11CD11CE11CF11C81E4C81682E4D8065C
:103910008FE0E80680E0F80670F3E0910201F09194
:10392000030109958091C00087FFE9CF2D9A80910E
:10393000C600FF90EF90DF90CF9008950E94731C17
:103940009091C00095FFFCCF8093C60081362CF487
:10395000803314F080530895089587550895CF93C8
:103960000E949E1CC82F0E949E1CC295C07F8C0F77
:10397000CF910895882341F09091C00097FFFCCF2C
:103980009091C6008150C1F70895CF93C82F0E942F
:10399000731C803249F0809104018F5F8093040191
:1039A0008530C1F0CF9108958091C00085FFFCCF94
:1039B00084E18093C6008091C00085FFFCCFC09356
:1039C000C6008091C00085FFFCCF80E18093C600D7
:1039D000CF910895E0910201F09103010995CF91F3
:1039E00008950E94731C803241F0809104018F5F22
:1039F00080930401853081F008958091C00085FF97
:103A0000FCCF84E18093C6008091C00085FFFCCF8D
:103A100080E18093C6000895E0910201F0910301D6
:103A200009950895882309F483E020E931E02D9A6F
:103A300048EE53E0F9013197F1F741505040D1F78A
:103A40002D9848EE53E0F9013197F1F7415050407D
:103A5000D1F7815061F7089500008FEC8093C40086
:103A600088E18093C10086E08093C2005098589A04
:103A7000259A81E00E94121D00E064E1D62E70E1DB
:103A8000C72E0E94731C8033A1F1002309F4BAC031
:103A9000813309F45AC0803409F44EC0813409F4EA
:103AA00097C0823489F18534D9F1803511F182359E
:103AB00001F18135F1F0853509F499C0863509F4B5
:103AC0009AC1843609F42CC1843709F4D8C08537EB
:103AD00009F4B0C0863709F485C0809104018F5F76
:103AE00080930401853049F001E00E94731C80330B
:103AF00061F60E94F11C01E0F8CFE0910201F09123
:103B00000301099501E0F1CF94E18091C00087FFA6
:103B1000FCCF8091C6009150C1F70E94F11CEBCF01
:103B200095E08091C00087FFFCCF8091C600915046
:103B3000C1F70E94F11CDFCF0E94731C8638C8F2C7
:103B40000E94731C0E94F11CD6CF0E94731C80320D
:103B500021F68091C00085FFFCCFD092C6008091F5
:103B6000C00085FFFCCF81E48093C6008091C00037
:103B700085FFFCCFE6E5E093C6008091C00085FF9D
:103B8000FCCFF2E5F093C6008091C00085FFFCCF2A
:103B900080E28093C6008091C00085FFFCCF89E45D
:103BA0008093C6008091C00085FFFCCF83E58093A1
:103BB000C6008091C00085FFFCCF80E58093C600E1
:103BC0008091C00085FFFCCFC092C60001E08DCF80
:103BD0000E94731C803849F1813811F18238D9F084
:103BE0008839A1F080E00E94C51C01E07ECF0E94D0
:103BF000731C809306010E94731C809307010E942E
:103C0000F11C79CF88E080936000FFCF83E00E94B1
:103C1000C51C01E06ACF80E10E94C51C01E065CFB0
:103C200081E00E94C51C01E060CF82E00E94C51CBB
:103C300001E05BCF0E94731C803209F04ECF80916F
:103C4000C00085FFFCCFD092C6008091C00085FFE8
:103C5000FCCFFEE1F093C6008091C00085FFFCCF51
:103C600084E98093C6008091C00085FFFCCFE6E028
:103C7000E093C6008091C00085FFFCCFA5CF0E94D5
:103C8000731C809309020E94731C80930802809128
:103C9000060190910701880F991F90930701809367
:103CA00006010E94731C8534A9F180910C028E7F5D
:103CB00080930C020E94731C803209F015CF809112
:103CC000C00085FFFCCFD092C60020910802309141
:103CD00009022115310509F4C7C080E090E0409148
:103CE0000C02E0910601F0910701542F51704270CF
:103CF000552309F0A3C0442339F464917091C000A6
:103D000075FFFCCF6093C6003196F0930701E093F6
:103D10000601A5C080910C02816080930C02CACF7D
:103D20000E94731C809309020E94731C80930802F6
:103D300080910C028E7F80930C020E94731C85344C
:103D400029F480910C02816080930C02809108021A
:103D5000909109020097A1F058E0E52E51E0F52E70
:103D600000E010E00E94731CF70181937F010F5F58
:103D70001F4F80910802909109020817190790F3CC
:103D80000E94731C803209F0A8CE80910C0280FF43
:103D900079C08091060190910701880F991F909337
:103DA0000701809306012091080230910902211534
:103DB0003105B1F0E8E0F1E040E050E0F999FECFE4
:103DC00092BD81BD619160BDFA9AF99A0196909376
:103DD0000701809306014F5F5F4F4217530770F34F
:103DE0008091C00085FFFCCFD092C6008091C000BA
:103DF00085FFFCCFE9CE0E94731C803351F083E035
:103E00009091C00097FFFCCF9091C6008150C1F700
:103E1000EACE0E94731C0E94731C082F0E94731C20
:103E2000002359F1013029F086E00E94C51C01E011
:103E30005CCE84E90E94C51C01E057CEF999FECF03
:103E4000F2BDE1BDF89A60B57091C00075FFFCCF7E
:103E50006093C6003196F0930701E0930601019646
:103E60008217930708F444CF8091C00085FDACCE43
:103E70008091C00085FFF8CFA7CE8EE10E94C51CBF
:103E800001E033CE80910701880F880B8170809309
:103E90000B028091060190910701880F991F909362
:103EA0000701809306018091080280FF09C080917C
:103EB00008029091090201969093090280930802EA
:103EC000F894F999FECF1127E0910601F0910701CE
:103ED000C8E0D1E08091080290910902103091F47D
:103EE0000091570001700130D9F303E000935700AF
:103EF000E8950091570001700130D9F301E100937A
:103F00005700E89509901990009157000170013011
:103F1000D9F301E000935700E8951395103498F019
:103F200011270091570001700130D9F305E000938B
:103F30005700E8950091570001700130D9F301E175
:103F400000935700E8953296029709F0C7CF1030DA
:0E3F500011F00296E5CF112443CFF894FFCF75
:023F5E008000E1
:0400000300003800C1
:00000001FF
